:100000003FC059C058C057C056C055C054C053C057
:1000100052C0AEC050C04FC04EC04DC04CC04BC00F
:100020004AC049C048C00000000037003400310019
:1000300000000000380035003200000000003600EB
:100040003300300004040404040404040202020225
:10005000020203030303030301020408102040808B
:100060000102040810200102040810200000000012
:100070000000000000030405000000000000000074
:1000800011241FBECFE5D4E0DEBFCDBF10E0A0E657
:10009000B0E0E4E4F3E002C005900D92A036B107B1
:1000A000D9F710E0A0E6B0E001C01D92A936B10773
:1000B000E1F75AD045C1A4CF83E061E00AD184E0E2
:1000C00060E007D185E060E004D186E061E001D125
:1000D000089583E061E0FDD084E060E0FAD085E03F
:1000E00061E0F7D086E060E0F4D00895F2DF68EEDA
:1000F00073E080E090E084D0DFDF60E071E080E0DA
:1001000090E07ED0E6DF68EE73E080E090E078D0AB
:10011000D3DF60E071E080E090E072D0DADF68EE7B
:1001200073E080E090E06CD0C7DF60E071E080E0D9
:1001300090E066D0CEDF68EE73E080E090E060D0C3
:10014000BBDF60E071E080E090E05AD0089583E08A
:1001500061E09FD084E061E09CD085E061E099D0CF
:1001600086E061E096D0089575D0F1DFBFDFFECF65
:100170001F920F920FB60F9211242F933F938F93DC
:100180009F93AF93BF938091640090916500A0917D
:100190006600B0916700309168000196A11DB11D05
:1001A000232F2D5F2D3720F02D570196A11DB11D56
:1001B000209368008093640090936500A09366008C
:1001C000B09367008091600090916100A0916200FF
:1001D000B09163000196A11DB11D809360009093C2
:1001E0006100A0936200B0936300BF91AF919F91B3
:1001F0008F913F912F910F900FBE0F901F901895E8
:10020000EF92FF920F931F937B018C018FB7F894AD
:1002100040916400509165006091660070916700A4
:100220008FBF2FB7F8948091640090916500A091E2
:100230006600B09167002FBF841B950BA60BB70B10
:10024000E816F9060A071B0760F71F910F91FF9048
:10025000EF900895789483B7826083BF83B78160FD
:1002600083BF89B7816089BF8EB582608EBD8EB530
:1002700081608EBD8FB581608FBD85B5846085BD81
:1002800085B5806485BD329A319A309A379A1AB80A
:100290000895282F30E0C901885A9F4FFC0194919E
:1002A0002C5B3F4FF9018491882391F0E82FF0E017
:1002B000EE0FFF1FEA5DFF4FA591B491662329F46D
:1002C0008C91909589238C9308958C91892B8C9394
:1002D0000895482F50E0CA0184599F4FFC01249192
:1002E000CA01885A9F4FFC0194914C5B5F4FFA0101
:1002F0003491332321F1222381F0233019F48FB577
:100300008F7704C0243021F48FB58F7D8FBD05C059
:10031000253019F485B58F7D85BDE32FF0E0EE0F14
:10032000FF1FE05DFF4FA591B491662329F48C91E6
:10033000909589238C9308958C91892B8C930895A3
:04034000F894FFCF5F
:00000001FF
