:100000003FC059C058C057C056C055C054C053C057
:1000100052C086C050C04FC04EC04DC04CC04BC037
:100020004AC049C048C00000000037003400310019
:1000300000000000380035003200000000003600EB
:100040003300300004040404040404040202020225
:10005000020203030303030301020408102040808B
:100060000102040810200102040810200000000012
:100070000000000000030405000000000000000074
:1000800011241FBECFE5D4E0DEBFCDBF10E0A0E657
:10009000B0E0E4EFF2E002C005900D92A036B107A7
:1000A000D9F710E0A0E6B0E001C01D92A936B10773
:1000B000E1F732D01DC1A4CF83E061E0E2D084E05B
:1000C00060E0DFD085E061E0DCD086E060E0D9D0A0
:1000D00060ED77E080E090E06BD083E061E0D1D02C
:1000E00084E060E0CED085E060E0CBD086E061E0E7
:1000F000C8D06AEF70E080E090E05AD0089583E0C5
:1001000061E09FD084E061E09CD085E061E099D01F
:1001100086E061E096D0089575D0F1DFCDDFFECFA7
:100120001F920F920FB60F9211242F933F938F932C
:100130009F93AF93BF938091640090916500A091CD
:100140006600B0916700309168000196A11DB11D55
:10015000232F2D5F2D3720F02D570196A11DB11DA6
:10016000209368008093640090936500A0936600DC
:10017000B09367008091600090916100A09162004F
:10018000B09163000196A11DB11D80936000909312
:100190006100A0936200B0936300BF91AF919F9103
:1001A0008F913F912F910F900FBE0F901F90189538
:1001B000EF92FF920F931F937B018C018FB7F894FE
:1001C00040916400509165006091660070916700F5
:1001D0008FBF2FB7F8948091640090916500A09133
:1001E0006600B09167002FBF841B950BA60BB70B61
:1001F000E816F9060A071B0760F71F910F91FF9099
:10020000EF900895789483B7826083BF83B781604D
:1002100083BF89B7816089BF8EB582608EBD8EB580
:1002200081608EBD8FB581608FBD85B5846085BDD1
:1002300085B5806485BD329A319A309A379A1AB85A
:100240000895282F30E0C901885A9F4FFC019491EE
:100250002C5B3F4FF9018491882391F0E82FF0E067
:10026000EE0FFF1FEA5DFF4FA591B491662329F4BD
:100270008C91909589238C9308958C91892B8C93E4
:100280000895482F50E0CA0184599F4FFC012491E2
:10029000CA01885A9F4FFC0194914C5B5F4FFA0151
:1002A0003491332321F1222381F0233019F48FB5C7
:1002B0008F7704C0243021F48FB58F7D8FBD05C0AA
:1002C000253019F485B58F7D85BDE32FF0E0EE0F65
:1002D000FF1FE05DFF4FA591B491662329F48C9137
:1002E000909589238C9308958C91892B8C930895F4
:0402F000F894FFCFB0
:00000001FF
