:1000000040C064C063C062C061C060C05FC05EC009
:100010005DC0DDC05BC0C3C159C058C057C056C029
:1000200055C054C053C000000000370034003100F8
:1000300000000000380035003200000000003600EB
:100040003300300004040404040404040202020225
:10005000020203030303030301020408102040808B
:100060000102040810200102040810200000000012
:100070000000000000030405000000000000000074
:10008000440311241FBECFE5D4E0DEBFCDBF10E096
:10009000A0E6B0E0E0E8F8E002C005900D92AA36D4
:1000A000B107D9F711E0AAE6B0E001C01D92AB306C
:1000B000B107E1F710E0C2E8D0E003C02297FE01EB
:1000C000D9D3C038D107D1F77ED0D8C399CF83E038
:1000D00060E02ED184E060E02BD185E060E028D1A3
:1000E00086E060E025D1089583E060E021D184E0DE
:1000F00061E01ED185E061E01BD186E060E018D1AF
:10010000089583E061E014D184E060E011D185E0DE
:1001100060E00ED186E061E00BD1089583E060E0FD
:1001200007D184E061E004D185E060E001D186E0A0
:1001300061E0FED0089583E061E0FAD084E060E001
:10014000F7D085E061E0F4D086E060E0F1D008957A
:1001500088EF90E04CD2882309F188EF90E05AD2E2
:1001600080936A00873711F4E6DF0BC0833711F400
:10017000D5DF07C0813611F4C4DF03C0843641F4F3
:10018000B3DF68EC70E080E090E069D0A0DF089514
:100190009EDF68EC70E080E090E061D0089583E03D
:1001A00061E0A6D084E061E0A3D085E061E0A0D06A
:1001B00086E061E09DD088EF90E040E855E260E0A5
:1001C00070E028D1089575D0EADFC2DFFECF1F921C
:1001D0000F920FB60F9211242F933F938F939F93FB
:1001E000AF93BF9380916F0090917000A0917100C8
:1001F000B0917200309173000196A11DB11D232FA3
:100200002D5F2D3720F02D570196A11DB11D209394
:10021000730080936F0090937000A0937100B0936F
:10022000720080916B0090916C00A0916D00B09174
:100230006E000196A11DB11D80936B0090936C0020
:10024000A0936D00B0936E00BF91AF919F918F917D
:100250003F912F910F900FBE0F901F901895EF9226
:10026000FF920F931F937B018C018FB7F8944091FD
:100270006F005091700060917100709172008FBF9B
:100280002FB7F89480916F0090917000A091710049
:10029000B09172002FBF841B950BA60BB70BE8160D
:1002A000F9060A071B0760F71F910F91FF90EF9067
:1002B0000895789483B7826083BF83B7816083BFDA
:1002C00089B7816089BF8EB582608EBD8EB5816031
:1002D0008EBD8FB581608FBD85B5846085BD85B5C8
:1002E000806485BD329A319A309A379A1AB8089547
:1002F000282F30E0C901885A9F4FFC0194912C5B54
:100300003F4FF9018491882391F0E82FF0E0EE0F40
:10031000FF1FEA5DFF4FA591B491662329F48C91EC
:10032000909589238C9308958C91892B8C930895B3
:10033000482F50E0CA0184599F4FFC012491CA0103
:10034000885A9F4FFC0194914C5B5F4FFA013491A6
:10035000332321F1222381F0233019F48FB58F77D5
:1003600004C0243021F48FB58F7D8FBD05C02530AA
:1003700019F485B58F7D85BDE32FF0E0EE0FFF1FEB
:10038000E05DFF4FA591B491662329F48C9190957F
:1003900089238C9308958C91892B8C9308951F92B7
:1003A0000F920FB60F9211242F933F934F935F93A9
:1003B0006F937F938F939F93AF93BF93EF93FF932D
:1003C0004CB1E091F400F091F500CF01019660E8A6
:1003D00070E0EAD19C018091F6009091F700281717
:1003E000390739F0EC58FF4F40833093F5002093E4
:1003F000F400FF91EF91BF91AF919F918F917F9109
:100400006F915F914F913F912F910F900FBE0F9081
:100410001F9018955F926F927F928F929F92AF92EA
:10042000BF92CF92DF92EF92FF920F931F93CF93E1
:10043000DF93EC013A014B01413482E458078FE02D
:10044000680780E078070CF075C060E874E88EE11A
:1004500090E0A4019301DDD1215030404040504054
:10046000CA01B90122E030E040E050E0D2D15901A8
:100470006A01A6019501209530954095509594E02C
:10048000220F331F441F551F9A95D1F760E074E285
:1004900084EF90E0BED1CA01B9012FEF30E040E017
:1004A00050E063D1A4019301B4D1C90181509F4FA1
:1004B000181619061CF4522E5A9403C0552453944E
:1004C000521A60E079E08DE390E0A4019301A1D19C
:1004D0002150304040405040CA01B90122E030E094
:1004E00040E050E096D1209530954095509583E0BE
:1004F000220F331F441F551F8A95D1F760E074E225
:1005000084EF90E086D1CA01B9012FEF30E040E0DE
:1005100050E02BD1A40193017CD1C90181509F4FA0
:10052000181619061CF4822F815002C081E0821B2C
:100530008515F0F4E885F98581E090E00A8802C02D
:10054000880F991F0A94E2F7808360E079E08DE3D9
:1005500090E0A40193015DD12150304040405040D3
:10056000CA01B90122E030E040E050E052D104C0BD
:10057000E885F98510829501EC81FD813083EE815B
:10058000FF812083EA85FB85208141E050E0CA019C
:100590000E8402C0880F991F0A94E2F7282B20834B
:1005A000EA85FB852081CA010F8402C0880F991F4C
:1005B0000A94E2F7282B2083EA85FB85808108884E
:1005C00002C0440F551F0A94E2F7842B8083DF9109
:1005D000CF911F910F91FF90EF90DF90CF90BF9040
:1005E000AF909F908F907F906F905F900895DC0107
:1005F0001296ED91FC911397E058FF4F81919191E4
:1006000080589F4F20813181821B930B60E870E0FE
:10061000CBD00895CF93DF93DC011296ED91FC913E
:100620001397EF01CE57DF4F48815981E058FF4FB4
:1006300080819181E058F0408417950719F42FEFDD
:100640003FEF0BC0E40FF51F2081CA01019660E85F
:1006500070E0AAD09983888330E0C901DF91CF91FF
:100660000895FC01A085B18521898C9190E0022E2E
:1006700002C0959587950A94E2F780FFF6CF04842F
:10068000F585E02D6083089584E690E09093F9006D
:100690008093F80084E790E09093FB008093FA0049
:1006A00080E490E09093FD008093FC0089E290E06C
:1006B0009093FF008093FE008BE290E09093010105
:1006C000809300018AE290E09093030180930201FD
:1006D0008CE290E0909305018093040184E0809384
:1006E000060183E08093070187E08093080185E09D
:1006F0008093090181E080930A0108950F931F936D
:10070000CF93DF938C01EB0109C02196D801ED91C5
:10071000FC910190F081E02DC80109956881662364
:10072000A1F7DF91CF911F910F910895EF92FF9262
:100730000F931F93CF93DF938C017B01EA010CC0D1
:10074000D7016D917D01D801ED91FC910190F0816F
:10075000E02DC80109952197209791F7DF91CF915E
:100760001F910F91FF90EF900895629FD001739FAA
:10077000F001829FE00DF11D649FE00DF11D929F3D
:10078000F00D839FF00D749FF00D659FF00D99277C
:10079000729FB00DE11DF91F639FB00DE11DF91FA0
:1007A000BD01CF011124089597FB092E07260AD019
:1007B00077FD04D049D006D000201AF470956195D9
:1007C0007F4F0895F6F7909581959F4F0895A1E288
:1007D0001A2EAA1BBB1BFD010DC0AA1FBB1FEE1FBB
:1007E000FF1FA217B307E407F50720F0A21BB30B06
:1007F000E40BF50B661F771F881F991F1A9469F782
:1008000060957095809590959B01AC01BD01CF01DD
:10081000089597FB092E05260ED057FD04D0D7DF8B
:100820000AD0001C38F450954095309521953F4FE3
:100830004F4F5F4F0895F6F79095809570956195AD
:100840007F4F8F4F9F4F0895AA1BBB1B51E107C0DD
:10085000AA1FBB1FA617B70710F0A61BB70B881F50
:10086000991F5A95A9F780959095BC01CD010895DF
:10087000EE0FFF1F0590F491E02D0994F894FFCF3F
:0A0880000000000031037E03960320
:00000001FF
